:020000020000FC
:100400001027722446238F22042290212C21D220EF
:1004100081203720F21FB11F741F3A1F031FCE1E09
:100420009B1E6B1E3C1E0E1EE21DB81D8E1D661D02
:100430003E1D181DF21CCE1CAA1C861C641C421CEE
:10044000211C001CE01BC01BA11B821B641B461B44
:10045000281B0B1BEE1AD21AB61A9A1A7E1A631AA6
:10046000481A2E1A131AF919DF19C619AC1993195B
:100470007A1961194919301918190019E818D11891
:10048000B918A2188A1873185C1846182F1818186B
:100490000218EB17D517BF17A91793177E17681700
:1004A00052173D1727171217FD16E816D216BD165C
:1004B000A91694167F166A16551641162C1618168C
:1004C0000316EF15DB15C615B2159E158A157615A0
:1004D00062154E153A1526151215FE14EA14D61497
:1004E000C214AE149B148714731460144C14381483
:1004F00024141114FD13EA13D613C213AF139B1364
:100500008813741360134D13391325131213FE123D
:10051000EB12D712C312AF129C128812741261121E
:100520004D12391225121112FD11E911D511C11107
:10053000AD119911851171115D11491134112011FD
:100540000C11F710E310CE10BA10A51090107B100C
:10055000661052103D1027101210FD0FE80FD20F39
:10056000BD0FA70F910F7C0F660F500F3A0F240F8E
:100570000D0FF70EE00EC90EB30E9C0E850E6D0E1C
:10058000560E3E0E270E0F0EF70DDF0DC60DAE0DEB
:10059000950D7C0D630D490D300D160DFC0CE10C15
:1005A000C70CAC0C910C750C590C3D0C210C040CB7
:1005B000E70BC90BAB0B8D0B6E0B4F0B2F0B0F0B00
:1005C000EE0ACD0AAB0A890A650A410A1D0AF70933
:1005D000D109A909810957092D090109D308A408DE
:1005E000740841080C08D5079B075E071D07D8064D
:1005F0008E063D06E3057F050B058004C9039D02B9
:100800008D20EA1C381CAE1B3A1BD61A7D1A2D1AF5
:10081000E3199F195F192419EB18B518821851189C
:100820002218F517CA17A017771750172A17041799
:10083000E016BD169A167916581637161816F915B9
:10084000DB15BD15A015831566154B152F15141551
:10085000FA14DF14C514AC1493147A1461144914F7
:10086000311419140214EA13D413BD13A6139013F0
:100870007A1364134E13391323130E13F912E4126F
:10088000D012BB12A71293127F126B12571244128E
:1008900030121D120912F611E311D011BD11AB1166
:1008A00098118611731161114F113C112A11181101
:1008B0000611F510E310D110C010AE109D108B1072
:1008C0007A106910571046103510241013100210BA
:1008D000F10FE10FD00FBF0FAE0F9E0F8D0F7C0FEA
:1008E0006C0F5B0F4B0F3B0F2A0F1A0F090FF90EFE
:1008F000E90ED90EC80EB80EA80E980E880E780E06
:10090000680E580E470E370E270E170E070EF70DFE
:10091000E70DD70DC70DB70DA80D980D880D780DF3
:10092000680D580D480D380D280D180D080DF80CE0
:10093000E80CD80CC80CB80CA80C980C880C780CD7
:10094000680C570C470C370C270C170C060CF60BD1
:10095000E60BD50BC50BB50BA40B940B830B720BDD
:10096000620B510B400B300B1F0B0E0BFD0AEC0AF8
:10097000DB0ACA0AB90AA80A960A850A730A620A31
:10098000500A3F0A2D0A1B0A090AF709E509D3098B
:10099000C009AE099B0989097609630950093D0917
:1009A000290916090209EE08DA08C608B2089D08E6
:1009B000890874085E08490833081E080808F1070A
:1009C000DA07C307AC0795077D0764074B073207B3
:1009D0001807FE06E406C806AC0690067206540622
:1009E00035061606F405D205AF058A0563053A05F6
:1009F0000E05DF04AC0474043504EA0389039E0287
:1000000011C0189573C01895A0C0189591C0E6C08E
:1000100018953AC11895189518951895189518952A
:1000200018951895F8948FE592E08DBF9EBFA8951E
:1000300088E181BD8EE181BDA89581E086B98FEF11
:1000400087B98FEF8ABB8BBB80E087BB83E088BB1F
:10005000882784BB8FEF85BB84E881BB88E782BBA0
:10006000849B03C098ED82EF02C09FED85E7892E47
:10007000982E85E083BF88278FBD82E08EBD80E00B
:10008000826089BF85B788608B7F85BF8BB78068AA
:100090008BBF8AB7806480688ABF82E588B90027F1
:1000A0000027222488E08093700089E1582EE1998E
:1000B000FECF81E02FBA8EBBE09A7DB229990FC0A6
:1000C00093B3791649F0792EE199FECF2FBA81E0EA
:1000D0008EBB7DBAE29AE19AA895299BFDCF7092DA
:1000E0007200AFD097987894A895FFCF3FB68F93C2
:1000F0009F938DBC9CBC046088B78064806888BF77
:1001000089B78064806889BF8BB78F778BBF4FEFCB
:10011000849B02C0F5E001C0F9E0EEEF8591949177
:10012000890D981D9BBD8ABD9F918F913FBE1895EB
:100130003FB68F939F938DBC9CBC89B780648F77AB
:1001400089BF8AB780688ABFE2CF3FB68F939F93FB
:1001500088E06624F0E0E0E69191941767948A9530
:1001600009F0FACF06FF02C0662460946BBA4A9584
:10017000B9F0849B02C0F4E001C0F8E0E42FEE0F78
:10018000F21D85919491890D981D03972CB53DB56D
:10019000821793070CF4EBCF03969BBD8ABD0EC06C
:1001A00089B78F7B89BF8FEF8BBB89B787FD06C06F
:1001B0008AB780688ABF8BB780688BBF9F918F9109
:1001C0003FBE1895769428F09F3710F4992701C008
:1001D0009FEFA73611F4709072000895A8953FB66E
:1001E0008F935A9421F582E0582E07FD23C0389A48
:1001F000469440FC02C0979A01C097988091700085
:100200008A9519F08093700012C088E08093700086
:10021000882701FF8AE003FF82E002FF8AEA45990E
:1002200002C00F7B02C08FEF0064482E017F8F91C8
:100230003FBE18950F77389B02C03898D9CF389AAF
:10024000D7CF81B3846081BB82B38B7F82BB81E0D7
:1002500089B9882780BD8EE880BD8CB188278BB98D
:10026000579A549A882784BB8FEF85BB86B1897FC4
:1002700086B987B1866087B9B0E0A0E680E018E073
:100280008D931A95E9F708953FB69F938F938BB19D
:100290009CB1086083FD2BC084FD26C0113041F065
:1002A000123079F0133090F48F919F913FBE1895E2
:1002B0009923E9F41395A3B3A095BB272A9BB39583
:1002C000F3CF119789F7B0E0A0E613957BDF8C910F
:1002D000891711F09C9300681196A83629F7B03061
:1002E00019F702601127E0CF11E05C98DDCF1127EC
:0602F0005B98DACFFFCF9E
:00000001FF
