:1000000033C000004CC000004AC0000048C00000DF
:1000100046C0000044C0000042C0000040C00000D4
:100020003EC000003CC000003AC0000038C00000E4
:1000300036C0000034C0000032C0000030C00000F4
:100040002EC000002CC0000093C0000028C000009B
:1000500026C0000024C0000022C0000020C0000014
:100060001EC000001CC0000011241FBECFEFD4E052
:10007000DEBFCDBF11E0A0E0B1E0E8E0F2E002C0F9
:1000800005900D92A830B107D9F711E0A8E0B1E0D2
:1000900001C01D92A830B107E1F75AD0B3C0B0CF6C
:1000A0009093C5008093C40080E98093C1000895B7
:1000B0009091C00095FFFCCF8093C6000895809179
:1000C000C00087FFFCCF9091C0008091C6009C715A
:1000D00009F08FEF089588E10FB6F89480936000DF
:1000E000109260000FBE579A569A87B1807C87B9EC
:1000F00088B18F6388B9529A529883E090E0D0DF3C
:1001000078940895579A88EE93E0E0E9F1E031970A
:10011000F1F70197D1F7579888EE93E0E0E9F1E025
:100120003197F1F70197D1F70895569A88EE93E049
:10013000E0E9F1E03197F1F70197D1F7569888EEB1
:1001400093E0E0E9F1E03197F1F70197D1F70895F5
:10015000C2DF86B190E08F739070019623E0880F24
:10016000991F2A95E1F79093020180930101FFCF37
:100170001F920F920FB60F9211242F933F938F93DC
:100180009F938091C000809305012091C600209329
:100190000601887161F480910001882361F48091E7
:1001A000030190910401009781F4222371F081E012
:1001B000809300010AC0222341F4809103019091B1
:1001C0000401009711F410920001809103019091B5
:1001D0000401019690930401809303012091010191
:1001E000309102012817390720F41092040110926F
:1001F00003019F918F913F912F910F900FBE0F9010
:080200001F901895F894FFCF40
:080208000008000000000000E6
:00000001FF
