:2000000012C0D1C029C028C027C045C125C024C023C022C021C04BC11FC010C11DC01CC0DB
:200020001BC01AC019C011241FBECFEDCDBF10E0A0E6B0E0E4E5F3E002C005900D92AC365E
:20004000B107D9F710E0ACE6B0E001C01D92A037B107E1F75ED17CC1D3CFCF93DF9300D07D
:20006000CDB7DD2710C01A82198207C0A89529813A812F5F3F4F3A83298329813A81283E38
:200080003340A1F70197009771F7CE5FCDBFDF91CF910895CF93DF9300D0CDB7DD2710C09C
:2000A0001A82198207C0A89529813A812F5F3F4F3A83298329813A8121303105A1F70197FF
:2000C000009771F7CE5FCDBFDF91CF910895BA98B998BB98B89AC098C29AC19AC39ABD98F2
:2000E000BF98BE98C59AC79AC69880B5886080BD8BB780628BBF88E18DB9089585E58FB96F
:2001000080E48EB9769BFECF8FB108959C018617970769F06817790718F42150310907C0CB
:200120008617970718F42F5F3F4F01C09B01C90108958A98929A85B7826085BF8BB78064C2
:200140008BBF089512BE86BF89B7816089BF80B7826080BF83B7816083BF089583B78E7FA1
:2001600083BF89B78E7F89BF08951DBC1CBC89B7806889BF8EB581608EBD089590916C0051
:20018000981708F0939A90916D00981708F0949A90916E00981708F0959A90916F00981784
:2001A00008F0969A089578941F920F920FB60F9211242F933F934F935F936F937F938F93E3
:2001C0009F93AF93BF93CF93DF93EF93FF93C6DF9398949895989698909A2CB53DB51DBC44
:2001E0001CBCC0E6D0E0888199819093630080936200732F60E0620F711D7983688386DF86
:2002000088839983909364008FEF80936500892F99DF8FEFB3DFFF91EF91DF91CF91BF91CA
:20022000AF919F918F917F916F915F914F913F912F910F900FBE0F901F9018951F920F9205
:200240000FB60F9211242F933F934F935F936F937F938F939F93AF93BF93EF93FF9380917A
:20026000650081118BDF80916500882319F0815080936500FF91EF91BF91AF919F918F91BA
:200280007F916F915F914F913F912F910F900FBE0F901F90189578941F920F920FB60F92C3
:2002A000112490980F900FBE0F901F90189578941F920F920FB60F9211248F939F93EF93AB
:2002C000FF93E6B3E670E250E53028F4F0E0EA59FF4FE08101C0E0E0BE9A82B392E0892748
:2002E00082BB85E58FB980E48EB9C09A769BFECF8FB1F0E0E459FF4F8083BE98C698C09882
:20030000FF91EF919F918F910F900FBE0F901F90189588E10FB6F89481BD11BC0FBE81B350
:20032000836081BB909A919810926C0010926D0010926E0010926F0081B3886781BBC7DE09
:2003400080916400FFDE11DFF4DE78940000FECFF894FFCF60EA60EAEAFF020001000300D3
:00000001FF
