:200000000C9434000C9449000C9449000C9449000C9449000C9449000C9449000C944900AD
:200020000C9449000C9449000C9449000C9449000C9449000C9449000C9449000C94490078
:200040000C9449000C9449000C94F7000C9449000C9449000C9449000C9449000C944900AA
:200060000C9449000C94490011241FBECFEFD4E0DEBFCDBF11E0A0E0B1E0EEE9F4E002C092
:2000800005900D92A831B107D9F70E9483010C944D020C940000CF93DF9300D0CDB7DEB759
:2000A00010C01A82198207C0A89529813A812F5F3F4F3A83298329813A81283E3340A1F775
:2000C0000197009771F70F900F90DF91CF910895CF93DF9300D0CDB7DEB710C01A8219821A
:2000E00007C0A89529813A812F5F3F4F3A83298329813A8121303105A1F70197009771F7F7
:200100000F900F90DF91CF9108951092C50083E08093C4008EE08093C20080E98093C10013
:200120000895439A459A449A3A9A399A3B9A3D9A3C9A389853985498409A5B9A5C9A429A17
:20014000419A84B18C6284B92A9A83E58CBD08958EBD0DB407FEFDCF8EB50895813041F0B3
:2001600028F0823041F0833051F407C0429801C0429A41980895429801C0429A419A0895E9
:20018000813039F018F0823059F406C088B198E005C088B190E202C088B190E1892788B93A
:2001A0000895259A229A579A569A0895ECE7F0E080E68083808186608083808181608083CE
:2001C000EAE7F0E08081886880830895813041F018F0823051F407C0309907C081E00895B7
:2001E0004B9BFCCF02C04C9BF9CF80E008951F920F920FB60F9211242F933F934F935F938B
:200200008F939F93EF93FF938091C000809307018091C6008093080180910701887111F084
:2002200081E02BC0809100018230D9F0833041F1813009F05BC080910801811155C0809169
:20024000010190910201019790930401809303018091030190910401892B09F40DC082E086
:200260000CC0809103019091040101979093040180930301892BD1F583E08093000136C0B9
:20028000E0910301F0910401E050FF4F9385809108019817F1F0E0910301F0910401809117
:2002A0000801E050FF4F83872091050130910601409103015091040181E090E002C0880F49
:2002C000991F4A95E2F7822B932B9093060180930501809103019091040101969093040106
:2002E000809303010C9711F410920001FF91EF919F918F915F914F913F912F910F900FBE70
:200300000F901F90189588E10FB6F89480936000109260000FBE84B1836084B988EC90E0AD
:200320000E944B00289A88EC90E00E944B00299A0E94D1005F9A2A9881E090E00E944B008E
:200340005E9881E090E00E944B002D9881E090E00E944B002D9A81E090E00E944B005E9AE9
:2003600081E090E00E944B000E9491002A9885E50E94A800C82F85E50E94A8002A9A5F98B0
:20038000282F30E03093020120930101C1FF09C02091010130910201316030930201209371
:2003A0000101C0FF09C08091010190910201926090930201809301010E948500789488ECA8
:2003C00090E00E944B0088EC90E00E944B0088EC90E00E944B0088EC90E00E944B0088ECD9
:2003E00090E00E944B00F12C01E010E0EF2CE694E6948E2D0E94E600882309F447C0209100
:20040000050130910601EF2DF0E00F2C02C0369527950A94E2F720FF39C040910501509157
:200420000601E8010F2C02C0CC0FDD1F0A94E2F79E0120953095242335233093060120934C
:200440000501E050FF4FD3848F2D83700E94AE008E2D0E94C00028988E2D0E94E600811110
:20046000FBCF289A8D2D0E94A800E82E83E00E94AE0085E5E81651F080910501909106013B
:200480008C2B9D2B9093060180930501F3948BE08F1508F0ABCFF12CA9CFF894FFCF0001A2
:1604A0000000000000000000FF0000000000000000000000000047
:00000001FF
